{
  "contractName": "HogwartsElection",
  "abi": [
    {
      "constant": true,
      "inputs": [
        {
          "name": "",
          "type": "uint256"
        }
      ],
      "name": "candidates",
      "outputs": [
        {
          "name": "id",
          "type": "uint256"
        },
        {
          "name": "name",
          "type": "string"
        },
        {
          "name": "house",
          "type": "string"
        },
        {
          "name": "voteCount",
          "type": "uint256"
        }
      ],
      "payable": false,
      "stateMutability": "view",
      "type": "function",
      "signature": "0x3477ee2e"
    },
    {
      "constant": true,
      "inputs": [],
      "name": "candidateId",
      "outputs": [
        {
          "name": "",
          "type": "uint256"
        }
      ],
      "payable": false,
      "stateMutability": "view",
      "type": "function",
      "signature": "0x9f91e6bf"
    },
    {
      "constant": true,
      "inputs": [
        {
          "name": "",
          "type": "address"
        }
      ],
      "name": "voters",
      "outputs": [
        {
          "name": "",
          "type": "bool"
        }
      ],
      "payable": false,
      "stateMutability": "view",
      "type": "function",
      "signature": "0xa3ec138d"
    },
    {
      "inputs": [],
      "payable": false,
      "stateMutability": "nonpayable",
      "type": "constructor",
      "signature": "constructor"
    },
    {
      "constant": false,
      "inputs": [
        {
          "name": "_candidateId",
          "type": "uint256"
        }
      ],
      "name": "vote",
      "outputs": [],
      "payable": false,
      "stateMutability": "nonpayable",
      "type": "function",
      "signature": "0x0121b93f"
    }
  ],
  "bytecode": "0x608060405234801561001057600080fd5b506100946040805190810160405280601081526020017f4865726d696f6e65204772616e676572000000000000000000000000000000008152506040805190810160405280600a81526020017f4772796666696e646f720000000000000000000000000000000000000000000081525061019f640100000000026401000000009004565b6101176040805190810160405280600c81526020017f447261636f204d616c666f7900000000000000000000000000000000000000008152506040805190810160405280600981526020017f536c7974686572696e000000000000000000000000000000000000000000000081525061019f640100000000026401000000009004565b61019a6040805190810160405280601281526020017f4e6576696c6c65204c6f6e67626f74746f6d00000000000000000000000000008152506040805190810160405280600a81526020017f4772796666696e646f720000000000000000000000000000000000000000000081525061019f640100000000026401000000009004565b6102e5565b60026000815480929190600101919050555060806040519081016040528060025481526020018381526020018281526020016000815250600160006002548152602001908152602001600020600082015181600001556020820151816001019080519060200190610211929190610240565b50604082015181600201908051906020019061022e929190610240565b50606082015181600301559050505050565b828054600181600116156101000203166002900490600052602060002090601f016020900481019282601f1061028157805160ff19168380011785556102af565b828001600101855582156102af579182015b828111156102ae578251825591602001919060010190610293565b5b5090506102bc91906102c0565b5090565b6102e291905b808211156102de5760008160009055506001016102c6565b5090565b90565b610603806102f46000396000f3fe608060405260043610610062576000357c0100000000000000000000000000000000000000000000000000000000900463ffffffff1680630121b93f146100675780633477ee2e146100a25780639f91e6bf146101d0578063a3ec138d146101fb575b600080fd5b34801561007357600080fd5b506100a06004803603602081101561008a57600080fd5b8101908080359060200190929190505050610264565b005b3480156100ae57600080fd5b506100db600480360360208110156100c557600080fd5b8101908080359060200190929190505050610451565b604051808581526020018060200180602001848152602001838103835286818151815260200191508051906020019080838360005b8381101561012b578082015181840152602081019050610110565b50505050905090810190601f1680156101585780820380516001836020036101000a031916815260200191505b50838103825285818151815260200191508051906020019080838360005b83811015610191578082015181840152602081019050610176565b50505050905090810190601f1680156101be5780820380516001836020036101000a031916815260200191505b50965050505050505060405180910390f35b3480156101dc57600080fd5b506101e56105b1565b6040518082815260200191505060405180910390f35b34801561020757600080fd5b5061024a6004803603602081101561021e57600080fd5b81019080803573ffffffffffffffffffffffffffffffffffffffff1690602001909291905050506105b7565b604051808215151515815260200191505060405180910390f35b6000803373ffffffffffffffffffffffffffffffffffffffff1673ffffffffffffffffffffffffffffffffffffffff16815260200190815260200160002060009054906101000a900460ff1615151561034b576040517f08c379a000000000000000000000000000000000000000000000000000000000815260040180806020018281038252603f8152602001807f796f752063616e277420766f74652074776963652c2077686f20646f20796f7581526020017f207468696e6b20796f7520617265204c6f726420566f6c64656d6f72743f210081525060400191505060405180910390fd5b60008111801561035d57506002548111155b15156103d1576040517f08c379a000000000000000000000000000000000000000000000000000000000815260040180806020018281038252601d8152602001807f746869732063616e64696461746520646f65736e27742065786973742100000081525060200191505060405180910390fd5b60016000803373ffffffffffffffffffffffffffffffffffffffff1673ffffffffffffffffffffffffffffffffffffffff16815260200190815260200160002060006101000a81548160ff021916908315150217905550600160008281526020019081526020016000206003016000815480929190600101919050555050565b6001602052806000526040600020600091509050806000015490806001018054600181600116156101000203166002900480601f0160208091040260200160405190810160405280929190818152602001828054600181600116156101000203166002900480156105035780601f106104d857610100808354040283529160200191610503565b820191906000526020600020905b8154815290600101906020018083116104e657829003601f168201915b505050505090806002018054600181600116156101000203166002900480601f0160208091040260200160405190810160405280929190818152602001828054600181600116156101000203166002900480156105a15780601f10610576576101008083540402835291602001916105a1565b820191906000526020600020905b81548152906001019060200180831161058457829003601f168201915b5050505050908060030154905084565b60025481565b60006020528060005260406000206000915054906101000a900460ff168156fea165627a7a72305820cf6120d33ccf0d0d13bde814aa4f785fd0ca0417acaa307276f35a98a44971ed0029",
  "source": "pragma solidity 0.5.0;\n\n//define smart contract\ncontract HogwartsElection {\n    //define the structure of the candidate \n    //candidate variable\n    struct Candidate {\n        uint id;\n        string name;\n        string house;\n        uint voteCount;\n    }\n\n    mapping(address => bool) public voters;\n\n    //create multiple candidates\n    mapping(uint => Candidate) public candidates;\n\n    //declare candidatesVotes variable \n    uint public candidateId;\n\n    //function to add candidates to the ballot \n    function addCandidate(string memory _name, string memory _house) private {\n        candidateId++;\n        candidates[candidateId] = Candidate(candidateId, _name, _house, 0);\n    }\n\n    //Constructor adds candidates with add candidate function\n    constructor () public {\n        addCandidate(\"Hermione Granger\", \"Gryffindor\");\n        addCandidate(\"Draco Malfoy\", \"Slytherin\");\n        addCandidate(\"Neville Longbottom\", \"Gryffindor\");\n    }\n\n    function vote (uint _candidateId) public {\n        // require that they haven't voted before\n        require(!voters[msg.sender], \"you can't vote twice, who do you think you are Lord Voldemort?!\");\n\n        // require a valid candidate\n        require(_candidateId > 0 && _candidateId <= candidateId, \"this candidate doesn't exist!\");\n\n        // record voting status\n        voters[msg.sender] = true;\n\n        // update candidate vote Count\n        candidates[_candidateId].voteCount ++;\n    }\n}",
  "sourcePath": "/Users/rhiannalarocque/GraceHopper/senior/blockVoteStackathon/contracts/HogwartsElection.sol",
  "compiler": {
    "name": "solc",
    "version": "0.5.0+commit.1d4f565a.Emscripten.clang"
  },
  "schemaVersion": "3.0.1",
  "updatedAt": "2019-01-19T17:44:11.305Z",
  "devdoc": {
    "methods": {}
  },
  "userdoc": {
    "methods": {}
  }
}