{
  "contractName": "HogwartsElection",
  "abi": [
    {
      "constant": true,
      "inputs": [
        {
          "name": "",
          "type": "bytes32"
        }
      ],
      "name": "votes",
      "outputs": [
        {
          "name": "",
          "type": "uint8"
        }
      ],
      "payable": false,
      "stateMutability": "view",
      "type": "function"
    },
    {
      "constant": true,
      "inputs": [
        {
          "name": "",
          "type": "uint256"
        }
      ],
      "name": "candidateList",
      "outputs": [
        {
          "name": "",
          "type": "bytes32"
        }
      ],
      "payable": false,
      "stateMutability": "view",
      "type": "function"
    },
    {
      "inputs": [
        {
          "name": "_candidateNames",
          "type": "bytes32[]"
        }
      ],
      "payable": false,
      "stateMutability": "nonpayable",
      "type": "constructor"
    },
    {
      "constant": true,
      "inputs": [
        {
          "name": "_candidate",
          "type": "bytes32"
        }
      ],
      "name": "totalVotesFor",
      "outputs": [
        {
          "name": "",
          "type": "uint8"
        }
      ],
      "payable": false,
      "stateMutability": "view",
      "type": "function"
    },
    {
      "constant": false,
      "inputs": [
        {
          "name": "_candidate",
          "type": "bytes32"
        }
      ],
      "name": "voteForCandidate",
      "outputs": [],
      "payable": false,
      "stateMutability": "nonpayable",
      "type": "function"
    }
  ],
  "bytecode": "0x608060405234801561001057600080fd5b506040516103983803806103988339810180604052602081101561003357600080fd5b81019080805164010000000081111561004b57600080fd5b8281019050602081018481111561006157600080fd5b815185602082028301116401000000008211171561007e57600080fd5b5050929190505050806001908051906020019061009c9291906100a3565b5050610115565b8280548282559060005260206000209081019282156100df579160200282015b828111156100de5782518255916020019190600101906100c3565b5b5090506100ec91906100f0565b5090565b61011291905b8082111561010e5760008160009055506001016100f6565b5090565b90565b610274806101246000396000f3fe608060405260043610610062576000357c0100000000000000000000000000000000000000000000000000000000900463ffffffff1680632b38cd96146100675780632f265cf7146100bc578063b13c744b14610111578063cc9ab26714610160575b600080fd5b34801561007357600080fd5b506100a06004803603602081101561008a57600080fd5b810190808035906020019092919050505061019b565b604051808260ff1660ff16815260200191505060405180910390f35b3480156100c857600080fd5b506100f5600480360360208110156100df57600080fd5b81019080803590602001909291905050506101bb565b604051808260ff1660ff16815260200191505060405180910390f35b34801561011d57600080fd5b5061014a6004803603602081101561013457600080fd5b81019080803590602001909291905050506101e4565b6040518082815260200191505060405180910390f35b34801561016c57600080fd5b506101996004803603602081101561018357600080fd5b8101908080359060200190929190505050610207565b005b60006020528060005260406000206000915054906101000a900460ff1681565b600080600083815260200190815260200160002060009054906101000a900460ff169050919050565b6001818154811015156101f357fe5b906000526020600020016000915090505481565b600160008083815260200190815260200160002060008282829054906101000a900460ff160192506101000a81548160ff021916908360ff1602179055505056fea165627a7a723058204c861af38bee16c64f94099b46fd76e698157ac1ce6f1e380404da9cb74c194b0029",
  "source": "pragma solidity 0.5.0;\n\n// //define smart contract\n// contract HogwartsElection {\n//     //define the structure of the candidate \n//     //candidate variable\n//     struct Candidate {\n//         uint id;\n//         string name;\n//         string house;\n//         uint voteCount;\n//     }\n\n//     //the maps act as a hash table!!!\n//     mapping(address => bool) public voters;\n\n//     //create multiple candidates\n//     mapping(uint => Candidate) public candidates;\n\n//     //declare candidatesVotes variable \n//     uint public candidateId;\n\n//     function to add candidates to the ballot \n//     function addCandidate(string memory _name, string memory _house) private {\n//         candidateId++;\n//         candidates[candidateId] = Candidate(candidateId, _name, _house, 0);\n//     }\n\n//     //Constructor adds candidates with add candidate function\n//     constructor () public {\n//         addCandidate(\"Hermione Granger\", \"Gryffindor\");\n//         addCandidate(\"Draco Malfoy\", \"Slytherin\");\n//         addCandidate(\"Neville Longbottom\", \"Gryffindor\");\n//     }\n\n//     function vote (uint _candidateId) public {\n//         // require that they haven't voted before\n//         require(!voters[msg.sender], \"you can't vote twice, who do you think you are Lord Voldemort?!\");\n\n//         // require a valid candidate\n//         require(_candidateId > 0 && _candidateId <= candidateId, \"this candidate doesn't exist!\");\n\n//         // record voting status\n//         voters[msg.sender] = true;\n\n//         // update candidate vote Count\n//         candidates[_candidateId].voteCount ++;\n//     }\n// }\n\ncontract HogwartsElection {\n  /* mapping field below is equivalent to an associative array or hash.\n  */\n  \n    mapping (bytes32 => uint8) public votes;\n  \n  /* We will use an array of bytes32 to store the list of movies\n  */\n  \n    bytes32[] public candidateList;\n\n  /* This is the constructor which will be called once when you\n  deploy the contract to the blockchain. When we deploy the contract,\n  we will pass an array of movies for which users will give ratings\n  */\n    constructor(bytes32[] memory _candidateNames) public {\n        candidateList = _candidateNames;\n    }\n\n  // This function returns the total ratings a movie has received so far\n    function totalVotesFor(bytes32 _candidate) public view returns (uint8) {\n        return votes[_candidate];\n    } \n\n  // This function increments the vote count for the specified movie. Equivalent to upvoting\n    function voteForCandidate(bytes32 _candidate) public {\n        votes[_candidate] += 1;\n    }\n}",
  "sourcePath": "/Users/rhiannalarocque/GraceHopper/senior/blockVoteStackathon/contracts/HogwartsElection.sol",
  "compiler": {
    "name": "solc",
    "version": "0.5.0+commit.1d4f565a.Emscripten.clang"
  },
  "schemaVersion": "3.0.1",
  "updatedAt": "2019-01-21T20:36:40.230Z",
  "devdoc": {
    "methods": {}
  },
  "userdoc": {
    "methods": {}
  }
}